:100000000C9461000C9473000C9473000C947300B6
:100010000C9473000C9473000C9473000C94730094
:100020000C9473000C9473000C9473000C94730084
:100030000C9473000C9473000C9473000C94730074
:100040000C94CC000C9473000C9473000C9473000B
:100050000C9473000C9473000C9473000C94730054
:100060000C9473000C94730000000000250028001D
:100070002B0000000000240027002A0000000000E0
:1000800023002600290004040404040404040202DA
:100090000202020203030303030301020408102007
:1000A0004080010204081020010204081020000012
:1000B0000008000201000003040700000000000027
:1000C000000011241FBECFEFD8E0DEBFCDBF21E07E
:1000D000A0E0B1E001C01D92A930B207E1F70E9493
:1000E00016010C94C0010C940000833081F028F4B8
:1000F000813099F08230A9F008958730A9F08830D6
:10010000C9F08430B1F4809180008F7D03C080916C
:1001100080008F7780938000089584B58F7784BDA9
:10012000089584B58F7DFBCF8091B0008F77809349
:10013000B00008958091B0008F7DF9CF1F93CF93C9
:10014000DF93282F30E0F901E255FF4F8491F90148
:10015000E656FF4FD491F901EA57FF4FC491CC23E3
:10016000A9F0162F81110E947500EC2FF0E0EE0F20
:10017000FF1FE859FF4FA591B4918FB7F894EC9108
:10018000111108C0D095DE23DC938FBFDF91CF9192
:100190001F910895DE2BF8CF1F920F920FB60F928A
:1001A00011242F933F938F939F93AF93BF9380918D
:1001B000050190910601A0910701B09108013091CD
:1001C000040123E0230F2D3758F50196A11DB11D21
:1001D000209304018093050190930601A0930701E9
:1001E000B09308018091000190910101A09102015A
:1001F000B09103010196A11DB11D80930001909360
:100200000101A0930201B0930301BF91AF919F91AF
:100210008F913F912F910F900FBE0F901F901895C7
:1002200026E8230F0296A11DB11DD2CF789484B584
:10023000826084BD84B5816084BD85B5826085BDE2
:1002400085B5816085BD80916E00816080936E0070
:100250001092810080918100826080938100809162
:100260008100816080938100809180008160809313
:1002700080008091B10084608093B1008091B000D3
:1002800081608093B00080917A00846080937A00CE
:1002900080917A00826080937A0080917A008160F8
:1002A00080937A0080917A00806880937A0010921F
:1002B000C10047EA50E0FA01649183E990E0FC0153
:1002C0002491222399F030E0220F331FF901EE58D8
:1002D000FF4FA591B491F901E859FF4F2591349151
:1002E0002FB7F8943C91632B6C932FBFFA01449184
:1002F000FC0184918823B9F090E0880F991FFC01DC
:10030000EE58FF4FC591D491FC01E859FF4FA591DC
:10031000B4919FB7F89488814095842388838C9109
:1003200048234C939FBFC2EBD0E00EE910E09AE85F
:10033000E92E90E0F92E20E0C22E20E0D22EFE0120
:100340008491F801A490F701B490BB2079F0811159
:100350000E947500EB2DF0E0EE0FFF1FE458FF4FF9
:10036000A591B4918C91A82260E009F461E08DE040
:100370000E949E00C114D10411F30E940000DFCF3F
:04038000F894FFCF1F
:00000001FF
